{
  "contractName": "Disperse",
  "abi": [
    {
      "constant": false,
      "inputs": [
        {
          "internalType": "address payable[]",
          "name": "recipients",
          "type": "address[]"
        },
        {
          "internalType": "uint256[]",
          "name": "values",
          "type": "uint256[]"
        }
      ],
      "name": "disperseEther",
      "outputs": [],
      "payable": true,
      "stateMutability": "payable",
      "type": "function"
    },
    {
      "constant": false,
      "inputs": [
        {
          "internalType": "address",
          "name": "tokenAddress",
          "type": "address"
        },
        {
          "internalType": "address payable[]",
          "name": "recipients",
          "type": "address[]"
        },
        {
          "internalType": "uint256[]",
          "name": "values",
          "type": "uint256[]"
        }
      ],
      "name": "disperseToken",
      "outputs": [],
      "payable": false,
      "stateMutability": "nonpayable",
      "type": "function"
    },
    {
      "constant": false,
      "inputs": [
        {
          "internalType": "address",
          "name": "tokenAddress",
          "type": "address"
        },
        {
          "internalType": "address payable[]",
          "name": "recipients",
          "type": "address[]"
        },
        {
          "internalType": "uint256[]",
          "name": "values",
          "type": "uint256[]"
        }
      ],
      "name": "disperseTokenSimple",
      "outputs": [],
      "payable": false,
      "stateMutability": "nonpayable",
      "type": "function"
    }
  ],
  "bytecode": "0x608060405234801561001057600080fd5b50610800806100206000396000f3fe6080604052600436106100345760003560e01c806351ba162c14610039578063c73a2d6014610134578063e63d38ed1461022f575b600080fd5b34801561004557600080fd5b506101326004803603606081101561005c57600080fd5b81019080803573ffffffffffffffffffffffffffffffffffffffff1690602001909291908035906020019064010000000081111561009957600080fd5b8201836020820111156100ab57600080fd5b803590602001918460208302840111640100000000831117156100cd57600080fd5b9091929391929390803590602001906401000000008111156100ee57600080fd5b82018360208201111561010057600080fd5b8035906020019184602083028401116401000000008311171561012257600080fd5b90919293919293905050506102fd565b005b34801561014057600080fd5b5061022d6004803603606081101561015757600080fd5b81019080803573ffffffffffffffffffffffffffffffffffffffff1690602001909291908035906020019064010000000081111561019457600080fd5b8201836020820111156101a657600080fd5b803590602001918460208302840111640100000000831117156101c857600080fd5b9091929391929390803590602001906401000000008111156101e957600080fd5b8201836020820111156101fb57600080fd5b8035906020019184602083028401116401000000008311171561021d57600080fd5b9091929391929390505050610462565b005b6102fb6004803603604081101561024557600080fd5b810190808035906020019064010000000081111561026257600080fd5b82018360208201111561027457600080fd5b8035906020019184602083028401116401000000008311171561029657600080fd5b9091929391929390803590602001906401000000008111156102b757600080fd5b8201836020820111156102c957600080fd5b803590602001918460208302840111640100000000831117156102eb57600080fd5b90919293919293905050506106ce565b005b600085905060008090505b85859050811015610459578173ffffffffffffffffffffffffffffffffffffffff166323b872dd3388888581811061033c57fe5b9050602002013573ffffffffffffffffffffffffffffffffffffffff1687878681811061036557fe5b905060200201356040518463ffffffff1660e01b8152600401808473ffffffffffffffffffffffffffffffffffffffff1673ffffffffffffffffffffffffffffffffffffffff1681526020018373ffffffffffffffffffffffffffffffffffffffff1673ffffffffffffffffffffffffffffffffffffffff1681526020018281526020019350505050602060405180830381600087803b15801561040857600080fd5b505af115801561041c573d6000803e3d6000fd5b505050506040513d602081101561043257600080fd5b810190808051906020019092919050505061044c57600080fd5b8080600101915050610308565b50505050505050565b6000859050600080905060008090505b868690508110156104a15784848281811061048957fe5b90506020020135820191508080600101915050610472565b508173ffffffffffffffffffffffffffffffffffffffff166323b872dd3330846040518463ffffffff1660e01b8152600401808473ffffffffffffffffffffffffffffffffffffffff1673ffffffffffffffffffffffffffffffffffffffff1681526020018373ffffffffffffffffffffffffffffffffffffffff1673ffffffffffffffffffffffffffffffffffffffff1681526020018281526020019350505050602060405180830381600087803b15801561055d57600080fd5b505af1158015610571573d6000803e3d6000fd5b505050506040513d602081101561058757600080fd5b81019080805190602001909291905050506105a157600080fd5b60008090505b868690508110156106c4578273ffffffffffffffffffffffffffffffffffffffff1663a9059cbb8888848181106105da57fe5b9050602002013573ffffffffffffffffffffffffffffffffffffffff1687878581811061060357fe5b905060200201356040518363ffffffff1660e01b8152600401808373ffffffffffffffffffffffffffffffffffffffff1673ffffffffffffffffffffffffffffffffffffffff16815260200182815260200192505050602060405180830381600087803b15801561067357600080fd5b505af1158015610687573d6000803e3d6000fd5b505050506040513d602081101561069d57600080fd5b81019080805190602001909291905050506106b757600080fd5b80806001019150506105a7565b5050505050505050565b60008090505b8484905081101561076d578484828181106106eb57fe5b9050602002013573ffffffffffffffffffffffffffffffffffffffff1673ffffffffffffffffffffffffffffffffffffffff166108fc84848481811061072d57fe5b905060200201359081150290604051600060405180830381858888f1935050505015801561075f573d6000803e3d6000fd5b5080806001019150506106d4565b50600047905060008111156107c4573373ffffffffffffffffffffffffffffffffffffffff166108fc829081150290604051600060405180830381858888f193505050501580156107c2573d6000803e3d6000fd5b505b505050505056fea265627a7a72315820ef7e9a528842d3c6fc92bb887d7ec07bdba71936bec125c6a687669c6c0381e864736f6c63430005100032",
  "source": "pragma solidity ^0.5.0;\r\nimport \"@openzeppelin/contracts/token/ERC20/IERC20.sol\";\r\n\r\ncontract Disperse {\r\n    function disperseEther(address payable[] calldata recipients, uint256[] calldata values) external payable {\r\n        for (uint256 i = 0; i < recipients.length; i++)\r\n            recipients[i].transfer(values[i]);\r\n        uint256 balance = address(this).balance;\r\n        if (balance > 0)\r\n            msg.sender.transfer(balance);\r\n    }\r\n\r\n    function disperseToken(address tokenAddress, address payable[] calldata recipients, uint256[] calldata values) external {\r\n        IERC20 token = IERC20(tokenAddress);\r\n        uint256 total = 0;\r\n        for (uint256 i = 0; i < recipients.length; i++)\r\n            total += values[i];\r\n        require(token.transferFrom(msg.sender, address(this), total));\r\n        for (uint256 i = 0; i < recipients.length; i++)\r\n            require(token.transfer(recipients[i], values[i]));\r\n    }\r\n\r\n    function disperseTokenSimple(address tokenAddress, address payable[] calldata recipients, uint256[] calldata values) external {\r\n        IERC20 token = IERC20(tokenAddress);\r\n        for (uint256 i = 0; i < recipients.length; i++)\r\n            require(token.transferFrom(msg.sender, recipients[i], values[i]));\r\n    }\r\n}",
  "sourcePath": "E:/iotex/disperse/truffle/contracts/disperse.sol",
  "compiler": {
    "name": "solc",
    "version": "0.5.16+commit.9c3226ce.Emscripten.clang"
  },
  "schemaVersion": "3.3.2",
  "updatedAt": "2021-07-04T11:32:20.143Z",
  "devdoc": {
    "methods": {}
  },
  "userdoc": {
    "methods": {}
  }
}